:100000000C9438000C9442000C9442000C94420072
:100010000C9442000C9442000C9442000C94420058
:100020000C9442000C9442000C9442000C94420048
:100030000C9442000C9442000C9442000C94420038
:100040000C9442000C9442000C9442000C94420028
:100050000C9442000C9442000C9442000C94420018
:100060000C9442000C9442000C9442000C94420008
:1000700011241FBECFEFD4E0DEBFCDBF0E945000E1
:100080000C9456000C9400001CBE8FE180B988E0EF
:1000900081B986E88CBF0895159BFECF83B908957A
:1000A0000E94440081E40E944C00FCCFF894FFCFF2
:00000001FF
