:100000000C94CC000C94E9000C94E9000C94E900E9
:100010000C94E9000C94E9000C94E9000C94E900BC
:100020000C94E9000C94E9000C94E9000C94E900AC
:100030000C94E9000C94E9000C94E9000C94E9009C
:100040000C94E9000C94E9000C94E9000C94E9008C
:100050000C94E9000C94E9000C94E9000C94E9007C
:100060000C94E9000C94E9000C94E9000C94E9006C
:10007000000000000000005F0000000700070014FF
:100080007F147F14242A7F2A1223130864623649BE
:100090005522500005030000001C224100004122AF
:1000A0001C0014083E081408083E080800503000E0
:1000B000000808080808006060000020100804021A
:1000C0003E5149453E00427F400042615149462130
:1000D00041454B311814127F1027454545393C4A9C
:1000E00049493001710905033649494936064949EC
:1000F000291E003636000000563600000814224142
:1001000000141414141400412214080201510906A9
:10011000324979413E7E1111117E7F494949363E6F
:10012000414141227F4141221C7F494949417F0988
:100130000909013E4149497A7F0808087F00417F4B
:1001400041002040413F017F081422417F40404050
:10015000407F020C027F7F0408107F3E4141413EF8
:100160007F090909063E4151215E7F09192946464A
:100170004949493101017F01013F4040403F1F2073
:1001800040201F3F4038403F631408146307087045
:10019000080761514945430011241FBECFEFD4E049
:1001A000DEBFCDBF11E0A0E0B1E0E4ECFFE002C0B3
:1001B00005900D92A637B107D9F721E0A6E7B1E087
:1001C00001C01D92A038B207E1F70E94EB000C9429
:1001D000E0070C940000CDB7DEB7E2970FB6F894B5
:1001E000DEBF0FBECDBF0E94AF0164EC71E08FEBAC
:1001F00091E00E9456030E94CA010E94DC010E9405
:10020000BF020E94230282E3E6E0F1E0DE011196E4
:1002100001900D928A95E1F733243394A12CB12CEF
:100220000F2EF0E56F2EF1E07F2EF02D0F2EF3E56F
:10023000EF2EF1E0FF2EF02D00E611E022242394B2
:100240006EC08DE491E09F938F930E9496020F9071
:100250000F909F928F920E9496028FEFC81AD80A31
:100260009AE0890E911C0F900F9025E0C216D104E0
:1002700001F181E08C0D0E942F0280E00E94360285
:10028000AC14BD04F1F27F926F920E9496020F901F
:100290000F90DFCF87E88D0D322C8F3450F0312C4A
:1002A00008C088E7D81628F494E0A916B1040CF425
:1002B00054C00E94E601D62E0E940E03882E0E9492
:1002C0003203962EC72E86E00E942F0280E00E9405
:1002D00036021F928F92FF92EF920E94960287E061
:1002E0000E942F0280E00E9436021F929F921F926E
:1002F000CF921F930F930E9496020FB6F894DEBF21
:100300000FBECDBF311431F299ECD91650F2A114C1
:10031000B10479F274F221E0A21AB108312C0E94E2
:10032000470280E00E942F0280E00E9436022501F1
:100330002FEF421A520A5F924F9288E391E09F9307
:100340008F930E949602CE0101964C010F900F9060
:100350000F900F90C12CD12C8CCF5201DFCF1CBE3F
:100360008FE180B988E181B986E88CBF0895159B3B
:10037000FECF83B90895179BFECF83B108950E94E5
:10038000B70180E090E008950E94BB01082E000CA8
:10039000990B089585B7806885BF80B7877C80BF3B
:1003A00080B7806280BF0895E82FF92F6083089599
:1003B000E82FF92F808108958D9A80E48FBD89E020
:1003C0008EBD81E090E09BBD8ABD0895CF93DF9301
:1003D00000D0CDB7DEB7109200101A821982898141
:1003E0009A818436910550F489819A8101969A8385
:1003F000898389819A8184369105B0F3E0E0F0E148
:1004000060817081908180810F900F90DF91CF91FA
:100410000895CF93C82F3A9880E00E94C9028C2F8C
:100420000E94DB020E94BC02CF910895CF93C82F97
:100430003A9A80E00E94C9028C2F0E94DB020E943F
:10044000BC02CF910895329A3A9881EA0E9409023B
:1004500088EC0E9409028FEA0E9409020895883000
:1004600008F087E0806B0E9409020895CF93C82F9F
:10047000803808F0CFE78C2F8F700E9409028C2FF4
:1004800082958F7080610E940902CF910895CF9369
:10049000DF93D0E08D2F0E942F0280E00E94360271
:1004A000C0E880E00E941602C150C111FACFDF5FA0
:1004B000D83081F780E00E942F0280E00E9436024F
:1004C000DF91CF9108951F93CF93DF9390EE980F14
:1004D0009B3308F08FE3805290E0EC01CC0FDD1FDE
:1004E000CC0FDD1FC80FD91FC059DF4F15E0FE012B
:1004F00084910E941602115021961111F8CF80E0CC
:100500000E941602DF91CF911F910895CF93DF9340
:10051000C82FD92F8881811531F021960E9463025E
:1005200089918111FBCFDF91CF910895CF93DF9314
:10053000CDB7DEB7C054D1090FB6F894DEBF0FBEF9
:10054000CDBF9E012B5B3F4FF901419151919F011E
:1005500060E470E0CE0101960E94A003CE010196F6
:100560000E948602C05CDF4F0FB6F894DEBF0FBE5C
:10057000CDBFDF91CF910895C49A389A089587B37B
:10058000806B87BBBE98309A0E94BC0280E58DB913
:100590000895CF93C82F0E94BC02C11521F0C1302D
:1005A00019F4389801C0C498CF9108958FB9779BFA
:1005B000FECF8FB108950E94D602089580E00E9478
:1005C000D60208950F931F93CF93DF93082F192F0F
:1005D000611549F0E801060F111D89910E94D602AC
:1005E000C017D107D1F7DF91CF911F910F910895D7
:1005F0000F931F93CF93DF93082F192F611549F0A5
:10060000E801060F111D0E94DE028993C017D10771
:10061000D1F7DF91CF911F910F9108951F93CF9341
:10062000DF9381E00E94C90283E00E94D6028DE040
:100630008A95F1F7000080E00E94D602182F00C0D2
:1006400080E00E94D602D82F00C080E00E94D6022F
:10065000C82F0E94BC02612F7D2F8C2FDF91CF917C
:100660001F9108951F93CF93DF9381E00E94C902E9
:1006700084E00E94D6028DE08A95F1F7000080E0C8
:100680000E94D602182F00C080E00E94D602D82F08
:1006900000C080E00E94D602C82F0E94BC02612FD9
:1006A0007D2F8C2FDF91CF911F9108950F931F9372
:1006B000CF93DF93EC018B01892B51F4672B41F42D
:1006C000E0E0F0E0CF01DF91CF911F910F9108950D
:1006D0006EE070E081E090E00E94BB05FC01892B98
:1006E00079F380E883830115110571F01387028780
:1006F00081E883838091760190917701892B21F4A1
:10070000F0937701E09376012097E1F2D187C087DB
:100710008381826083838091780190917901892B14
:1007200089F6F0937901E093780180917A019091B4
:100730007B01892B39F6F0937B01E0937A01C2CFDC
:10074000AEE0B0E0E6EAF3E00C94B7078C01F62FD8
:10075000E72FBA01A90186E08C831A8309838F2FC2
:100760009E2F813020E8920710F080E090E80197FA
:100770009E838D83CE0101960E94D0034D815E81C0
:1007800057FD0AC02F813885421753070CF49A0190
:10079000020F131FF80110822E96E4E00C94D30789
:1007A000ABE0B0E0E6EDF3E00C94AC076C017B014C
:1007B0008A01FC0117821682838181FFD9C19AE0E8
:1007C000592EF6012381F70123FD859123FF8191A5
:1007D0007F01811509F41FC1853239F423FD9591FC
:1007E00023FF91917F01953229F4B60190E00E9498
:1007F0001B07E7CF30E0912C612C712CF0E27F16C3
:1008000040F59B32D9F058F49032D1F09332F1F0A8
:100810009E3299F576FCFFC0689476F806C09D324A
:1008200091F09033C1F4689470F8F70123FD95912D
:1008300023FF91917F019111E1CF29C0689471F854
:10084000689472F8F2CF689473F8EFCF689474F8F4
:10085000ECCF77FC1CC080ED890F8A30C8F676FE9D
:1008600005C0959C800D1124982EDFCF659C800DCE
:100870001124682E689475F8D8CF9C3619F46894C2
:1008800077F8D3CF9C3409F44BC0983671F2892F96
:100890008F7D8554833008F445C0933609F466C0D3
:1008A000933709F469C0933509F475C0943619F08B
:1008B000993609F09FC0F80177FE95C0619171915A
:1008C000819191918F01272D2F76822E97FF09C05C
:1008D00090958095709561957F4F8F4F9F4F68944D
:1008E00087F82AE030E0AE014F5F5F4F5A010E9467
:1008F0004B078A19A82E86FEC4C0882D8E7FA914A6
:1009000008F0BEC084FE11C182FC05C1F82DFE7E38
:100910008F2EB92C882D8678811509F4BFC000C1AF
:1009200031E083CF3115F9F0085F1F4F8FE38983E2
:1009300088248394912CAE014F5F5F4F5A01E89455
:1009400077F873FC03C086149104B0F1811491040C
:10095000D1F5611409F435CFB60180E290E00E9430
:100960001B076A94F6CF0C5F1F4FE0CFF801808120
:1009700089830E5F1F4FDCCFF801A190B1908F01EA
:10098000692D70E076FC02C06FEF7FEFC5010E9419
:1009900010074C01D4CFF801A190B1908F01692DBF
:1009A00070E076FC02C06FEF7FEFC5010E94FE068B
:1009B0004C01689477F8C5CFB60180E290E00E94C0
:1009C0001B076A94C0CFF50177FC859177FE819172
:1009D0005F01B60190E00E941B0761106A94F1E08C
:1009E0008F1A9108B3CF61917191072E000C880B7B
:1009F000990B68CF872CE89484F82AE030E095378B
:100A000039F1572D597F852E903799F058F4983544
:100A1000A9F09F36D9F0F601868197812B96EFE0F9
:100A20000C94C8079837B9F774FC05C020E130E092
:100A30000FC0689484F8689482F8F8CF74FE03C0FD
:100A4000872D8660882E20E132E002C028E030E069
:100A5000F80187FE10C061917191819191918F0190
:100A6000FE0131965F01AF010E944B078A19A82E43
:100A7000E89487F840CF6191719180E090E0EFCFEA
:100A8000882EBA2C84FE46CFFE01EA0DF11D80812E
:100A9000803309F043C0282D297E822E83FC0EC0AE
:100AA00080FE4FC09A2CB61418F4960C9B18B62CE6
:100AB000862D8B196B1408F480E0B80EB61408F07C
:100AC00042C06B1884FE41C0B60180E390E00E94F2
:100AD0001B0782FE09C088E590E081FC02C088E720
:100AE00090E0B6010E941B07A914D8F1AA94B12C7A
:100AF0004FEFA41AB40ACE0101964C01A80EB91EFC
:100B0000F50182915F01B60190E00E941B078A14F3
:100B10009B04B1F71ECFB92C882EB6CF82FC02C041
:100B2000B394BCCFB394B394B9CFB92C882EF2CE82
:100B3000B60180E290E00E941B0773947614C0F324
:100B4000B7CF7B2CFBCF612CBDCF882D867881154C
:100B500059F280E281FC8BE287FC8DE2B60190E0E5
:100B6000C1CFB60180E390E00E941B079A94BCCFEE
:100B70008FEF9FEF53CF0F931F93CF93DF93869FFA
:100B80008001879F100D969F100D1124C8010E94AF
:100B9000D705EC01009729F0A80160E070E00E9401
:100BA0000907CE01DF91CF911F910F9108950F9307
:100BB0001F93CF93DF939C01029710F422E030E063
:100BC000E0917C01F0917D0180E090E0A0E0B0E058
:100BD000309791F4009709F448C0821B930B84303E
:100BE0009105D0F58A819B816115710581F1FB0129
:100BF00093838283FE0111C0408151810281138160
:100C000042175307D8F04217530799F4109761F031
:100C100012960C93129713961C933296CF01DF9184
:100C2000CF911F910F91089500937C0110937D0146
:100C3000F4CF009751F04817590738F0AC01DB01A9
:100C4000CA01BD01DF01F801C3CFEF01F9CF9093D5
:100C50007D0180937C01CECFFE01E80FF91F219327
:100C60003193029799838883D9CF40917E01509127
:100C70007F014115510541F440910201509103015A
:100C800050937F0140937E0180910001909101017A
:100C9000009741F48DB79EB76091040170910501F2
:100CA000861B970B4817590708F0B8CF841B950B84
:100CB0008217930708F4B2CFB9016E5F7F4F861792
:100CC000970708F4ABCF640F751F70937F01609393
:100CD0007E01FA0121933193A1CFCF93DF939C0141
:100CE0000097E9F0FC01329713821282C0917C01D7
:100CF000D0917D01DE0180E090E02097A1F4808119
:100D00009181280F391F80917E0190917F01821778
:100D1000930709F068C0F0937F01E0937E01DF91B3
:100D2000CF910895DA01AE17BF0708F042C01296BE
:100D30004D915C911397CD014115510599F7DC0157
:100D40001396FC93EE9312974D915D919D01240FA4
:100D5000351FE217F30781F4208131812E5F3F4F69
:100D6000240F351FDC0111963C932E932281338191
:100D700013963C932E931297E0E0F0E08A819B81DA
:100D80000097B1F5DE018D919D918A0F9B1F2091F7
:100D90007E0130917F012817390709F6309759F500
:100DA00010927D0110927C01D0937F01C0937E014F
:100DB000B6CFB383A28340815181240F351FA21780
:100DC000B30771F44E5F5F4F2D913C911197240F43
:100DD000351F3183208312962D913C9133832283DA
:100DE000009709F0ACCFF0937D01E0937C0197CFA1
:100DF000FE01EC01C3CF13821282D6CFFC01059015
:100E0000615070400110D8F7809590958E0F9F1F0C
:100E10000895DC0101C06D9341505040E0F7089502
:100E2000FC016150704001900110D8F780959095B9
:100E30008E0F9F1F08950F931F93CF93DF93182F4B
:100E4000092FEB018B8181FD09C01FEF0FEF812F6F
:100E5000902FDF91CF911F910F91089582FF14C0C1
:100E60002E813F818C819D81281739073CF4E881D0
:100E7000F981CF0101969983888310838E819F81A8
:100E800001969F838E83E3CFE885F985812F0995AD
:100E9000892BA1F3DACFFA01AA27283051F12031AA
:100EA00081F1E8946F936E7F6E5F7F4F8F4F9F4FFE
:100EB000AF4FB1E03ED0B4E03CD0670F781F891F40
:100EC0009A1FA11D680F791F8A1F911DA11D6A0F0E
:100ED000711D811D911DA11D20D009F468943F91C1
:100EE0002AE0269F11243019305D3193DEF6CF01C0
:100EF0000895462F4770405D4193B3E00FD0C9F786
:100F0000F6CF462F4F70405D4A3318F0495D31FDF2
:100F10004052419302D0A9F7EACFB4E0A695979545
:100F2000879577956795BA95C9F70097610571051B
:100F300008959B01AC010A2E069457954795379565
:100F40002795BA95C9F7620F731F841F951FA01DBF
:100F500008952F923F924F925F926F927F928F925D
:100F60009F92AF92BF92CF92DF92EF92FF920F9338
:100F70001F93CF93DF93CDB7DEB7CA1BDB0B0FB642
:100F8000F894DEBF0FBECDBF09942A8839884888FF
:100F90005F846E847D848C849B84AA84B984C88495
:100FA000DF80EE80FD800C811B81AA81B981CE0F8C
:100FB000D11D0FB6F894DEBF0FBECDBFED01089571
:040FC000F894FFCFD3
:100FC4000000800120004F5054494F4E2031000052
:100FD4004F5054494F4E203200004F5054494F4E09
:100FE400203300004F5054494F4E203400004F50DE
:100FF40054494F4E203500005553455220494E5414
:101004004552464143453A2028257529002A2000A7
:101014002E20004A4F5920423A20253375202000C3
:101024004C4546543A20202575202C2052494748E7
:06103400543A202575006E
:00000001FF
