:100000000C9438000C9442000C9442000C94420072
:100010000C9442000C9442000C9442000C94420058
:100020000C9442000C9442000C9442000C94420048
:100030000C9442000C9442000C9442000C94420038
:100040000C9442000C9442000C9442000C94420028
:100050000C9442000C9442000C9442000C94420018
:100060000C9442000C9442000C9442000C94420008
:1000700011241FBECFEFD4E0DEBFCDBF0E944400ED
:100080000C945A000C9400000E944A0081E40E94E3
:100090005200FCCF1CBE8FE180B988E181B986E8AF
:1000A0008CBF0895159BFECF83B90895179BFECF93
:0800B00083B10895F894FFCF1D
:00000001FF
